S01700006E6F64655F636F6E74726F6C6C65722E73726563C4
S11300000C945E000C947B000C947B000C947B009D
S11300100C947B000C947B000C947B000C947B0070
S11300200C947B000C947B000C947B000C947B0060
S11300300C947B000C947B000C94C3060C947B0002
S11300400C947B000C947B000C947B000C947B0040
S11300500C947B000C947B000C947B000C947B0030
S11300600C947B000C947B00CA0065010302A1027E
S11300703F03DE035A04D604520592059A05A205ED
S1130080AA05B205BA05C205CA05D205DA05E20514
S1130090EA05F205FA0502060A0612061A062206FF
S11300A02A0632063A0642064A0652065A066206EC
S11300B06A0672067A0682068A06920611241FBE12
S11300C0CFEFD8E0DEBFCDBF11E0A0E0B1E0E6E2C3
S11300D0FFE002C005900D92A230B107D9F721E0EC
S11300E0A2E0B1E001C01D92AC30B207E1F70E947A
S11300F07D000C9491070C940000CF93DF93CDB74F
S1130100DEB763970FB6F894DEBF0FBECDBF1A8279
S113011019821C821B821E821D8218861F821A86E7
S113012019861C861B861E861D86188A1F861A8AB7
S1130130198A1B8A0E9467050E94B00608E010E035
S113014061E070E0CE0101960E94570761E070E023
S1130150CE0101960E94650761E0CE0143960E949C
S1130160730789819A8129813A81019682179307BD
S113017010F41A83098389819A81099710F01A82ED
S11301801982E981FA81E930F105D0F6EC5CFF4F80
S11301900C947C071092090110920A0110920B0131
S11301A08B89882359F28B819C818039914038F462
S11301B061E070E0CE0103960E94570706C060E03C
S11301C070E0CE0103960E9457078B819C81892B96
S11301D039F061E070E0CE0103960E94650706C025
S11301E060E070E0CE0103960E94650760E0CE01F6
S11301F043960E9473074B815C819A01ADECBCEC81
S11302000E948207969587959695879596958795EA
S11302109C01220F331F880F991F880F991F880F85
S1130220991F820F931F481B590B409309012B817F
S11302303C810E948207AC01569547955695479597
S1130240569547959A010E948207969587959695AB
S11302508795969587959C01220F331F880F991FC8
S1130260880F991F880F991F820F931F481B590BE2
S113027040930A012B813C81369527953695279525
S1130280ABE7B4E10E948207AC01569547959A0109
S1130290ADECBCEC0E948207969587959695879560
S11302A0969587959C01220F331F880F991F880FFD
S11302B0991F880F991F820F931F481B590B409356
S11302C00B018B8981116FCF39CF88E180930901AC
S11302D089E180930A018FE080930B018B89882345
S11302E009F42CCF8D819E81049738F461E070E08D
S11302F0CE0105960E94570706C060E070E0CE016B
S113030005960E9457078D819E81892B39F061E003
S113031070E0CE0105960E94650706C060E070E0BB
S1130320CE0105960E94650760E0CE0143960E94C7
S113033073074D815E819A01ADECBCEC0E9482078B
S11303409695879596958795969587959C01220F06
S1130350331F880F991F880F991F880F991F820FC9
S1130360931F481B590B409309012D813E810E9424
S11303708207AC01569547955695479556954795EE
S11303809A010E94820796958795969587959695EA
S113039087959C01220F331F880F991F880F991F7F
S11303A0880F991F820F931F481B590B40930A0112
S11303B02D813E813695279536952795ABE7B4E197
S11303C00E948207AC01569547959A01ADECBCECAE
S11303D00E94820796958795969587959695879519
S11303E09C01220F331F880F991F880F991F880FB4
S11303F0991F820F931F481B590B40930B018B8944
S1130400811170CF9BCE8DE18093090189E18093A6
S11304100A018DE080930B018B89882309F48ECE29
S11304208F819885049738F461E070E0CE010796D7
S11304300E94570706C060E070E0CE0107960E9454
S113044057078F819885892B39F061E070E0CE01E0
S113045007960E94650706C060E070E0CE0107962B
S11304600E94650760E0CE0143960E9473074F81A6
S113047058859A01ADECBCEC0E948207969587954D
S113048096958795969587959C01220F331F880F23
S1130490991F880F991F880F991F820F931F481B5C
S11304A0590B409309012F8138850E948207AC01C2
S11304B05695479556954795569547959A010E94A6
S11304C082079695879596958795969587959C012D
S11304D0220F331F880F991F880F991F880F991FA8
S11304E0820F931F481B590B40930A012F813885B3
S11304F03695279536952795ABE7B4E10E94820798
S1130500AC01569547959A01ADECBCEC0E9482076C
S11305109695879596958795969587959C01220F34
S1130520331F880F991F880F991F880F991F820FF7
S1130530931F481B590B40930B018B89811170CF7A
S1130540FDCD8CE08093090180930A018AE08093B9
S11305500B018B89882309F4F1CD89859A85883527
S1130560924038F46AE070E0CE0109960E94570781
S113057006C060E070E0CE0109960E9457078985A5
S11305809A85892B39F06AE070E0CE0109960E94C1
S1130590650706C060E070E0CE0109960E94650719
S11305A060E0CE0143960E94730749855A859A01FB
S11305B0ADECBCEC0E94820796958795969587953D
S11305C0969587959C01220F331F880F991F880FDA
S11305D0991F880F991F820F931F481B590B409333
S11305E0090129853A850E948207AC0156954795F1
S11305F056954795569547959A010E948207969578
S1130600879596958795969587959C01220F331F1C
S1130610880F991F880F991F880F991F820F931FA6
S1130620481B590B40930A0129853A85369527952D
S113063036952795ABE7B4E10E948207AC01569545
S113064047959A01ADECBCEC0E948207969587957C
S113065096958795969587959C01220F331F880F51
S1130660991F880F991F880F991F820F931F481B8A
S1130670590B40930B018B8981116FCF5FCD8CE0B7
S1130680809309018EE080930A018DE080930B0131
S11306908B89882309F452CD8B859C8588359240BB
S11306A038F46AE070E0CE010B960E94570706C04A
S11306B060E070E0CE010B960E9457078B859C8505
S11306C0892B39F06AE070E0CE010B960E94650731
S11306D006C060E070E0CE010B960E94650760E002
S11306E0CE0143960E9473074B855C859A01ADEC5D
S11306F0BCEC0E948207969587959695879596956A
S113070087959C01220F331F880F991F880F991F0B
S1130710880F991F820F931F481B590B409309019F
S11307202B853C850E948207AC01569547955695CA
S11307304795569547959A010E9482079695879505
S113074096958795969587959C01220F331F880F60
S1130750991F880F991F880F991F820F931F481B99
S1130760590B40930A012B853C8536952795369580
S11307702795ABE7B4E10E948207AC0156954795F3
S11307809A01ADECBCEC0E948207969587959695EC
S11307908795969587959C01220F331F880F991F83
S11307A0880F991F880F991F820F931F481B590B9D
S11307B040930B018B8981116FCFC0CC89E1809369
S11307C009018CE180930A018CE080930B018B89F1
S11307D0882309F4B3CC60E0CE0143960E947307EA
S11307E04D855E859A01ADECBCEC0E94820796951E
S11307F0879596958795969587959C01220F331F2B
S1130800880F991F880F991F880F991F820F931FB4
S1130810481B590B409309012D853E850E94820790
S1130820AC015695479556954795569547959A0127
S11308300E948207969587959695879596958795B4
S11308409C01220F331F880F991F880F991F880F4F
S1130850991F820F931F481B590B40930A012D8542
S11308603E853695279536952795ABE7B4E10E94EA
S11308708207AC01569547959A01ADECBCEC0E94F9
S113088082079695879596958795969587959C0169
S1130890220F331F880F991F880F991F880F991FE4
S11308A0820F931F481B590B40930B018B898111B5
S11308B092CF44CC80E28093090187E180930A01BE
S11308C089E180930B018B89882309F437CC60E09C
S11308D0CE0143960E9473074F8558899A01ADEC67
S11308E0BCEC0E9482079695879596958795969578
S11308F087959C01220F331F880F991F880F991F1A
S1130900880F991F820F931F481B590B40930901AD
S11309102F8538890E948207AC01569547955695D4
S11309204795569547959A010E9482079695879513
S113093096958795969587959C01220F331F880F6E
S1130940991F880F991F880F991F820F931F481BA7
S1130950590B40930A012F8538893695279536958A
S11309602795ABE7B4E10E948207AC015695479501
S11309709A01ADECBCEC0E948207969587959695FA
S11309808795969587959C01220F331F880F991F91
S1130990880F991F880F991F820F931F481B590BAB
S11309A040930B018B89811192CFC8CB84E1809352
S11309B009018CE080930A018DE080930B018B89FF
S11309C0882309F4BBCB60E0CE0143960E947307F1
S11309D049895A899A01ADECBCEC0E94820796952C
S11309E0879596958795969587959C01220F331F39
S11309F0880F991F880F991F880F991F820F931FC3
S1130A00481B590B4093090129893A890E9482079E
S1130A10AC015695479556954795569547959A0135
S1130A200E948207969587959695879596958795C2
S1130A309C01220F331F880F991F880F991F880F5D
S1130A40991F820F931F481B590B40930A01298950
S1130A503A893695279536952795ABE7B4E10E94F8
S1130A608207AC01569547959A01ADECBCEC0E9407
S1130A7082079695879596958795969587959C0177
S1130A80220F331F880F991F880F991F880F991FF2
S1130A90820F931F481B590B40930B018B898111C3
S1130AA092CF4CCB85E18093090196E190930A01A2
S1130AB080930B018B89882309F440CB60E0CE013D
S1130AC043960E9473078B898111F8CF37CB82E05C
S1130AD090E061E070E04AB19B01082E02C0220F51
S1130AE0331F0A94E2F7242B2AB901968830910522
S1130AF091F7209A219A3B9A3C9A3898409A3998CF
S1130B00419A3A98429A229823982598249A0895CB
S1130B1090E08132910508F00CC1FC01E35CFF4FC9
S1130B200C947C075A9A5B9A5C9A5D9A5E9A5F9AD7
S1130B30289808955A985B9A5C9A5D985E985F9895
S1130B40289808955A9A5B9A5C985D9A5E9A5F9881
S1130B50289A08955A9A5B9A5C9A5D9A5E985F986F
S1130B60289A08955A985B9A5C9A5D985E985F9A61
S1130B70289A08955A9A5B985C9A5D9A5E985F9A4F
S1130B80289A08955A9A5B985C9A5D9A5E9A5F9A3D
S1130B90289A08955A9A5B9A5C9A5D985E985F9831
S1130BA0289808955A9A5B9A5C9A5D9A5E9A5F9A1D
S1130BB0289A08955A9A5B9A5C9A5D9A5E985F9A0D
S1130BC0289A08955A9A5B9A5C9A5D985E9A5F9AFD
S1130BD0289A08955A985B9A5C9A5D9A5E9A5F9AED
S1130BE0289A08955A9A5B985C985D9A5E9A5F9ADF
S1130BF0289808955A985B9A5C9A5D9A5E9A5F98D1
S1130C00289A08955A9A5B985C985D9A5E9A5F9ABE
S1130C10289A08955A9A5B985C985D985E9A5F9AB0
S1130C20289A08955A9A5B985C9A5D9A5E9A5F9A9C
S1130C30289808955A985B9A5C9A5D985E9A5F9A90
S1130C40289A08955A985B985C9A5D985E9A5F9A80
S1130C50289A08955A985B985C9A5D985E985F9874
S1130C60289808955A985B985C985D9A5E9A5F9A62
S1130C70289808955A985B985C9A5D985E9A5F9854
S1130C80289A08955A985B985C9A5D9A5E9A5F9840
S1130C90289A08955A9A5B9A5C985D985E9A5F9A2E
S1130CA0589A08955A9A5B9A5C9A5D985E985F9AEE
S1130CB0289A08955A985B985C985D985E9A5F9814
S1130CC0289A08955A985B9A5C9A5D9A5E985F9AFE
S1130CD0289A08955A985B985C985D9A5E9A5F9AF0
S1130CE0289A08955A985B9A5C9A5D9A5E9A5F9ADC
S1130CF0289808955A985B985C9A5D9A5E9A5F98D2
S1130D00289808955A985B9A5C9A5D9A5E985F9ABF
S1130D10289A08955A9A5B9A5C985D9A5E9A5F98AD
S1130D20289A08955A9A5B9A5C9A5D985E9A5F9A9B
S1130D302898089529984398449808958091090122
S1130D400E948805299A089580910A010E948805C5
S1130D50439A089580910B010E948805449A08954E
S1130D60F89414BC15BC16BC89EF87BD84B58260A9
S1130D7084BD85B5836085BDEEE6F0E08081826048
S1130D808083789408951F920F920FB60F921124C6
S1130D902F933F934F935F936F937F938F939F937F
S1130DA0AF93BF93EF93FF93809102018F5F809382
S1130DB002010E9418070E942D0781E090E00E9422
S1130DC0420780910201843011F50E949A068091B5
S1130DD00001823039F0833041F0813041F40E94C7
S1130DE09E0605C00E94A40602C00E94AA06909115
S1130DF000018BEA989F812D11248695282F220FBC
S1130E00820F981B9F5F9093000110920201FF9143
S1130E10EF91BF91AF919F918F917F916F915F916E
S1130E204F913F912F910F900FBE0F901F901895E7
S1130E30309910C080910801843631F41092080171
S1130E4081E0809307010895809108018F5F80936A
S1130E5008010895109208010895319910C08091F5
S1130E600601843631F41092060181E08093050175
S1130E700895809106018F5F809306010895109272
S1130E8006010895329910C080910401843631F42A
S1130E901092040181E0809303010895809104017C
S1130EA08F5F8093040108951092040108952091A6
S1130EB00701222349F0FC0120813181620F731F55
S1130EC07183608310920701089520910501222304
S1130ED049F0FC0120813181261B370B31832083AB
S1130EE0109205010895FC0190910301992319F0D2
S1130EF06083109203010895EE0FFF1F0590F49193
S1130F00E02D0994A29FB001B39FC001A39F700D6F
S1130F10811D1124911DB29F700D811D1124911DFD
S1090F200895F894FFCFD0
S1050F260100C4
S9030000FC
